{
  "contractName": "Contest",
  "abi": [
    {
      "inputs": [
        {
          "internalType": "bytes32[]",
          "name": "candidateNames",
          "type": "bytes32[]"
        }
      ],
      "stateMutability": "nonpayable",
      "type": "constructor"
    },
    {
      "inputs": [
        {
          "internalType": "uint256",
          "name": "",
          "type": "uint256"
        }
      ],
      "name": "candidates",
      "outputs": [
        {
          "internalType": "bytes32",
          "name": "name",
          "type": "bytes32"
        },
        {
          "internalType": "uint256",
          "name": "voteCount",
          "type": "uint256"
        }
      ],
      "stateMutability": "view",
      "type": "function"
    },
    {
      "inputs": [],
      "name": "creator",
      "outputs": [
        {
          "internalType": "address",
          "name": "",
          "type": "address"
        }
      ],
      "stateMutability": "view",
      "type": "function"
    },
    {
      "inputs": [
        {
          "internalType": "address",
          "name": "",
          "type": "address"
        }
      ],
      "name": "voters",
      "outputs": [
        {
          "internalType": "uint256",
          "name": "vote",
          "type": "uint256"
        },
        {
          "internalType": "uint256",
          "name": "weight",
          "type": "uint256"
        },
        {
          "internalType": "address",
          "name": "delegatedTo",
          "type": "address"
        },
        {
          "internalType": "bool",
          "name": "hasVoted",
          "type": "bool"
        }
      ],
      "stateMutability": "view",
      "type": "function"
    },
    {
      "inputs": [
        {
          "internalType": "address",
          "name": "voter",
          "type": "address"
        }
      ],
      "name": "giveRightToVote",
      "outputs": [],
      "stateMutability": "nonpayable",
      "type": "function"
    },
    {
      "inputs": [
        {
          "internalType": "address",
          "name": "delegateAddress",
          "type": "address"
        }
      ],
      "name": "delegate",
      "outputs": [],
      "stateMutability": "nonpayable",
      "type": "function"
    },
    {
      "inputs": [
        {
          "internalType": "uint256",
          "name": "candidateID",
          "type": "uint256"
        }
      ],
      "name": "vote",
      "outputs": [],
      "stateMutability": "nonpayable",
      "type": "function"
    },
    {
      "inputs": [],
      "name": "winnerID",
      "outputs": [
        {
          "internalType": "uint256",
          "name": "candidateID",
          "type": "uint256"
        }
      ],
      "stateMutability": "view",
      "type": "function"
    },
    {
      "inputs": [],
      "name": "winnerName",
      "outputs": [
        {
          "internalType": "bytes32",
          "name": "candidateName",
          "type": "bytes32"
        }
      ],
      "stateMutability": "view",
      "type": "function"
    }
  ],
  "bytecode": "0x60806040523480156200001157600080fd5b50604051620014e1380380620014e1833981810160405281019062000037919062000342565b336000806101000a81548173ffffffffffffffffffffffffffffffffffffffff021916908373ffffffffffffffffffffffffffffffffffffffff16021790555060018060008060009054906101000a900473ffffffffffffffffffffffffffffffffffffffff1673ffffffffffffffffffffffffffffffffffffffff1673ffffffffffffffffffffffffffffffffffffffff1681526020019081526020016000206001018190555060005b81518110156200017657600260405180604001604052808484815181106200010f576200010e62000393565b5b60200260200101518152602001600081525090806001815401808255809150506001900390600052602060002090600202016000909190919091506000820151816000015560208201518160010155505080806200016d90620003fb565b915050620000e2565b505062000448565b6000604051905090565b600080fd5b600080fd5b600080fd5b6000601f19601f8301169050919050565b7f4e487b7100000000000000000000000000000000000000000000000000000000600052604160045260246000fd5b620001e28262000197565b810181811067ffffffffffffffff82111715620002045762000203620001a8565b5b80604052505050565b6000620002196200017e565b9050620002278282620001d7565b919050565b600067ffffffffffffffff8211156200024a5762000249620001a8565b5b602082029050602081019050919050565b600080fd5b6000819050919050565b620002758162000260565b81146200028157600080fd5b50565b60008151905062000295816200026a565b92915050565b6000620002b2620002ac846200022c565b6200020d565b90508083825260208201905060208402830185811115620002d857620002d76200025b565b5b835b81811015620003055780620002f0888262000284565b845260208401935050602081019050620002da565b5050509392505050565b600082601f83011262000327576200032662000192565b5b8151620003398482602086016200029b565b91505092915050565b6000602082840312156200035b576200035a62000188565b5b600082015167ffffffffffffffff8111156200037c576200037b6200018d565b5b6200038a848285016200030f565b91505092915050565b7f4e487b7100000000000000000000000000000000000000000000000000000000600052603260045260246000fd5b7f4e487b7100000000000000000000000000000000000000000000000000000000600052601160045260246000fd5b6000819050919050565b60006200040882620003f1565b91507fffffffffffffffffffffffffffffffffffffffffffffffffffffffffffffffff82036200043d576200043c620003c2565b5b600182019050919050565b61108980620004586000396000f3fe608060405234801561001057600080fd5b50600436106100885760003560e01c80635c19a95c1161005b5780635c19a95c146101165780639e7b8d6114610132578063a3ec138d1461014e578063e2ba53f01461018157610088565b80630121b93f1461008d57806302d05d3f146100a9578063337ebd7a146100c75780633477ee2e146100e5575b600080fd5b6100a760048036038101906100a291906109cb565b61019f565b005b6100b16102e5565b6040516100be9190610a39565b60405180910390f35b6100cf610309565b6040516100dc9190610a63565b60405180910390f35b6100ff60048036038101906100fa91906109cb565b610391565b60405161010d929190610a97565b60405180910390f35b610130600480360381019061012b9190610aec565b6103c5565b005b61014c60048036038101906101479190610aec565b6107a2565b005b61016860048036038101906101639190610aec565b6108ff565b6040516101789493929190610b34565b60405180910390f35b61018961095c565b6040516101969190610b79565b60405180910390f35b6000600160003373ffffffffffffffffffffffffffffffffffffffff1673ffffffffffffffffffffffffffffffffffffffff16815260200190815260200160002090506000816001015403610229576040517f08c379a000000000000000000000000000000000000000000000000000000000815260040161022090610c17565b60405180910390fd5b8060020160149054906101000a900460ff161561027b576040517f08c379a000000000000000000000000000000000000000000000000000000000815260040161027290610c83565b60405180910390fd5b60018160020160146101000a81548160ff0219169083151502179055508181600001819055508060010154600283815481106102ba576102b9610ca3565b5b906000526020600020906002020160010160008282546102da9190610d01565b925050819055505050565b60008054906101000a900473ffffffffffffffffffffffffffffffffffffffff1681565b6000806000905060005b60028054905081101561038c57816002828154811061033557610334610ca3565b5b9060005260206000209060020201600101541115610379576002818154811061036157610360610ca3565b5b90600052602060002090600202016001015491508092505b808061038490610d57565b915050610313565b505090565b600281815481106103a157600080fd5b90600052602060002090600202016000915090508060000154908060010154905082565b6000600160003373ffffffffffffffffffffffffffffffffffffffff1673ffffffffffffffffffffffffffffffffffffffff16815260200190815260200160002090508060020160149054906101000a900460ff161561045a576040517f08c379a000000000000000000000000000000000000000000000000000000000815260040161045190610c83565b60405180910390fd5b3373ffffffffffffffffffffffffffffffffffffffff168273ffffffffffffffffffffffffffffffffffffffff16036104c8576040517f08c379a00000000000000000000000000000000000000000000000000000000081526004016104bf90610deb565b60405180910390fd5b5b600073ffffffffffffffffffffffffffffffffffffffff16600160008473ffffffffffffffffffffffffffffffffffffffff1673ffffffffffffffffffffffffffffffffffffffff16815260200190815260200160002060020160009054906101000a900473ffffffffffffffffffffffffffffffffffffffff1673ffffffffffffffffffffffffffffffffffffffff161461063757600160008373ffffffffffffffffffffffffffffffffffffffff1673ffffffffffffffffffffffffffffffffffffffff16815260200190815260200160002060020160009054906101000a900473ffffffffffffffffffffffffffffffffffffffff1691503373ffffffffffffffffffffffffffffffffffffffff168273ffffffffffffffffffffffffffffffffffffffff1603610632576040517f08c379a000000000000000000000000000000000000000000000000000000000815260040161062990610e7d565b60405180910390fd5b6104c9565b6000600160008473ffffffffffffffffffffffffffffffffffffffff1673ffffffffffffffffffffffffffffffffffffffff16815260200190815260200160002090506001816001015410156106c2576040517f08c379a00000000000000000000000000000000000000000000000000000000081526004016106b990610f0f565b60405180910390fd5b60018260020160146101000a81548160ff021916908315150217905550828260020160006101000a81548173ffffffffffffffffffffffffffffffffffffffff021916908373ffffffffffffffffffffffffffffffffffffffff160217905550816001015481600101600082825461073a9190610d01565b925050819055508060020160149054906101000a900460ff161561079d578160010154600282600001548154811061077557610774610ca3565b5b906000526020600020906002020160010160008282546107959190610d01565b925050819055505b505050565b60008054906101000a900473ffffffffffffffffffffffffffffffffffffffff1673ffffffffffffffffffffffffffffffffffffffff163373ffffffffffffffffffffffffffffffffffffffff1614610830576040517f08c379a000000000000000000000000000000000000000000000000000000000815260040161082790610fa1565b60405180910390fd5b6000600160008373ffffffffffffffffffffffffffffffffffffffff1673ffffffffffffffffffffffffffffffffffffffff16815260200190815260200160002060010154146108b5576040517f08c379a00000000000000000000000000000000000000000000000000000000081526004016108ac90611033565b60405180910390fd5b60018060008373ffffffffffffffffffffffffffffffffffffffff1673ffffffffffffffffffffffffffffffffffffffff1681526020019081526020016000206001018190555050565b60016020528060005260406000206000915090508060000154908060010154908060020160009054906101000a900473ffffffffffffffffffffffffffffffffffffffff16908060020160149054906101000a900460ff16905084565b60006002610968610309565b8154811061097957610978610ca3565b5b906000526020600020906002020160000154905090565b600080fd5b6000819050919050565b6109a881610995565b81146109b357600080fd5b50565b6000813590506109c58161099f565b92915050565b6000602082840312156109e1576109e0610990565b5b60006109ef848285016109b6565b91505092915050565b600073ffffffffffffffffffffffffffffffffffffffff82169050919050565b6000610a23826109f8565b9050919050565b610a3381610a18565b82525050565b6000602082019050610a4e6000830184610a2a565b92915050565b610a5d81610995565b82525050565b6000602082019050610a786000830184610a54565b92915050565b6000819050919050565b610a9181610a7e565b82525050565b6000604082019050610aac6000830185610a88565b610ab96020830184610a54565b9392505050565b610ac981610a18565b8114610ad457600080fd5b50565b600081359050610ae681610ac0565b92915050565b600060208284031215610b0257610b01610990565b5b6000610b1084828501610ad7565b91505092915050565b60008115159050919050565b610b2e81610b19565b82525050565b6000608082019050610b496000830187610a54565b610b566020830186610a54565b610b636040830185610a2a565b610b706060830184610b25565b95945050505050565b6000602082019050610b8e6000830184610a88565b92915050565b600082825260208201905092915050565b7f54686973206164647265737320686173206e6f20726967687420746f20766f7460008201527f6520696e207468697320636f6e74657374000000000000000000000000000000602082015250565b6000610c01603183610b94565b9150610c0c82610ba5565b604082019050919050565b60006020820190508181036000830152610c3081610bf4565b9050919050565b7f5468697320616464726573732068617320616c726561647920766f7465640000600082015250565b6000610c6d601e83610b94565b9150610c7882610c37565b602082019050919050565b60006020820190508181036000830152610c9c81610c60565b9050919050565b7f4e487b7100000000000000000000000000000000000000000000000000000000600052603260045260246000fd5b7f4e487b7100000000000000000000000000000000000000000000000000000000600052601160045260246000fd5b6000610d0c82610995565b9150610d1783610995565b9250827fffffffffffffffffffffffffffffffffffffffffffffffffffffffffffffffff03821115610d4c57610d4b610cd2565b5b828201905092915050565b6000610d6282610995565b91507fffffffffffffffffffffffffffffffffffffffffffffffffffffffffffffffff8203610d9457610d93610cd2565b5b600182019050919050565b7f53656c662d64656c65676174696f6e206973206e6f7420616c6c6f7765640000600082015250565b6000610dd5601e83610b94565b9150610de082610d9f565b602082019050919050565b60006020820190508181036000830152610e0481610dc8565b9050919050565b7f44656c65676174696e6720746f207468697320706572736f6e2077696c6c206360008201527f726561746520612064656c65676174696f6e206c6f6f70000000000000000000602082015250565b6000610e67603783610b94565b9150610e7282610e0b565b604082019050919050565b60006020820190508181036000830152610e9681610e5a565b9050919050565b7f5468652063686f73656e2064656c656761746520686173206e6f74206265656e60008201527f206772616e7465642074686520726967687420746f20766f7465000000000000602082015250565b6000610ef9603a83610b94565b9150610f0482610e9d565b604082019050919050565b60006020820190508181036000830152610f2881610eec565b9050919050565b7f54686973206f7065726174696f6e206973206f6e6c792061636365737369626c60008201527f6520746f207468697320636f6e7465737427732063726561746f720000000000602082015250565b6000610f8b603b83610b94565b9150610f9682610f2f565b604082019050919050565b60006020820190508181036000830152610fba81610f7e565b9050919050565b7f5468697320616464726573732068617320616c7265616479206265656e20677260008201527f616e7465642074686520726967687420746f20766f7465000000000000000000602082015250565b600061101d603783610b94565b915061102882610fc1565b604082019050919050565b6000602082019050818103600083015261104c81611010565b905091905056fea2646970667358221220f1220a966a38fdc1863085091599b21cd8191ba875d438ba557cdf377470b64264736f6c634300080d0033",
  "immutableReferences": {},
  "source": "// SPDX-License-Identifier: MIT\r\npragma solidity >=0.8.0 <0.9.0;\r\n\r\ncontract Contest {\r\n    struct Voter {\r\n        uint vote;\r\n        uint weight;\r\n        address delegatedTo;\r\n        bool hasVoted;\r\n    }\r\n\r\n    struct Candidate {\r\n        bytes32 name;\r\n        uint voteCount;\r\n    }\r\n\r\n    address public creator;\r\n    mapping(address => Voter) public voters;\r\n    Candidate[] public candidates;\r\n\r\n    constructor(bytes32[] memory candidateNames) {\r\n        creator = msg.sender;\r\n        voters[creator].weight = 1;\r\n\r\n        for (uint i = 0; i < candidateNames.length; i++) {\r\n            candidates.push(Candidate({\r\n                name: candidateNames[i],\r\n                voteCount: 0\r\n            }));\r\n        }\r\n    }\r\n\r\n    modifier creatorOnly {\r\n        require(\r\n            msg.sender == creator,\r\n            \"This operation is only accessible to this contest's creator\"\r\n        );\r\n        _;\r\n    }\r\n\r\n    function giveRightToVote(address voter) external creatorOnly {\r\n        require(\r\n            voters[voter].weight == 0,\r\n            \"This address has already been granted the right to vote\"\r\n        );\r\n        voters[voter].weight = 1;\r\n    }\r\n\r\n    function delegate(address delegateAddress) external {\r\n        Voter storage voter = voters[msg.sender];\r\n        \r\n        require(!voter.hasVoted, \"This address has already voted\");\r\n        require(delegateAddress != msg.sender, \"Self-delegation is not allowed\");\r\n\r\n        while (voters[delegateAddress].delegatedTo != address(0)) {\r\n            delegateAddress = voters[delegateAddress].delegatedTo;\r\n\r\n            require(\r\n                delegateAddress != msg.sender,\r\n                \"Delegating to this person will create a delegation loop\"\r\n            );\r\n        }\r\n\r\n        Voter storage chosenDelegate = voters[delegateAddress];\r\n\r\n        require(\r\n            chosenDelegate.weight >= 1,\r\n            \"The chosen delegate has not been granted the right to vote\"\r\n        );\r\n\r\n        voter.hasVoted = true;\r\n        voter.delegatedTo = delegateAddress;\r\n        chosenDelegate.weight += voter.weight;\r\n        if (chosenDelegate.hasVoted) {\r\n            candidates[chosenDelegate.vote].voteCount += voter.weight;\r\n        }\r\n    }\r\n\r\n    function vote(uint candidateID) external {\r\n        Voter storage voter = voters[msg.sender];\r\n\r\n        require(voter.weight != 0, \"This address has no right to vote in this contest\");\r\n        require(!voter.hasVoted, \"This address has already voted\");\r\n        \r\n        voter.hasVoted = true;\r\n        voter.vote = candidateID;\r\n\r\n        candidates[candidateID].voteCount += voter.weight;\r\n    }\r\n\r\n    function winnerID() public view returns (uint candidateID)\r\n    {\r\n        uint winningVoteCount = 0;\r\n        for (uint i = 0; i < candidates.length; i++) {\r\n            if (candidates[i].voteCount > winningVoteCount) {\r\n                winningVoteCount = candidates[i].voteCount;\r\n                candidateID = i;\r\n            }\r\n        }\r\n    }\r\n\r\n    function winnerName() external view returns (bytes32 candidateName)\r\n    {\r\n        candidateName = candidates[winnerID()].name;\r\n    }\r\n}\r\n\r\ncontract Decentraballot {\r\n    struct ContestIdentity {\r\n        bytes32 identifier;\r\n        string description;\r\n        address contractAddress;\r\n    }\r\n\r\n    mapping(bytes32 => ContestIdentity) public contests;\r\n\r\n    function createContest(bytes32 identifier, string calldata description, bytes32[] calldata candidates) external {\r\n        require (contests[identifier].contractAddress == address(0), \"Contest with given identifier already exists\");\r\n\r\n        contests[identifier] = ContestIdentity(\r\n            {\r\n                identifier: identifier,\r\n                contractAddress: address(new Contest(candidates)),\r\n                description: description\r\n            }\r\n        );\r\n    }\r\n\r\n    function getContestAddress(bytes32 identifier) external view returns (address) {\r\n        require (contests[identifier].contractAddress != address(0), \"Contest with given identifier does not exist\");\r\n        \r\n        return contests[identifier].contractAddress;\r\n    }\r\n\r\n    function getContestDescription(bytes32 identifier) external view returns (string memory) {\r\n        require (contests[identifier].contractAddress != address(0), \"Contest with given identifier does not exist\");\r\n\r\n        return contests[identifier].description;\r\n    }\r\n}",
  "sourcePath": "C:\\Users\\zaida\\OneDrive\\Desktop\\Blockchain Dev\\Decentraballot\\blockchain\\contracts\\Decentraballot.sol",
  "compiler": {
    "name": "solc",
    "version": "0.8.13+commit.abaa5c0e.Emscripten.clang"
  },
  "schemaVersion": "3.4.7",
  "updatedAt": "2022-05-14T03:18:15.339Z",
  "devdoc": {
    "kind": "dev",
    "methods": {},
    "version": 1
  },
  "userdoc": {
    "kind": "user",
    "methods": {},
    "version": 1
  }
}