{
  "contractName": "Contest",
  "abi": [
    {
      "inputs": [
        {
          "internalType": "bytes32[]",
          "name": "candidateNames",
          "type": "bytes32[]"
        },
        {
          "internalType": "address",
          "name": "creatorAddress",
          "type": "address"
        }
      ],
      "stateMutability": "nonpayable",
      "type": "constructor"
    },
    {
      "inputs": [
        {
          "internalType": "uint256",
          "name": "",
          "type": "uint256"
        }
      ],
      "name": "candidates",
      "outputs": [
        {
          "internalType": "bytes32",
          "name": "name",
          "type": "bytes32"
        },
        {
          "internalType": "uint256",
          "name": "voteCount",
          "type": "uint256"
        }
      ],
      "stateMutability": "view",
      "type": "function"
    },
    {
      "inputs": [],
      "name": "creator",
      "outputs": [
        {
          "internalType": "address",
          "name": "",
          "type": "address"
        }
      ],
      "stateMutability": "view",
      "type": "function"
    },
    {
      "inputs": [
        {
          "internalType": "address",
          "name": "",
          "type": "address"
        }
      ],
      "name": "voters",
      "outputs": [
        {
          "internalType": "uint256",
          "name": "vote",
          "type": "uint256"
        },
        {
          "internalType": "uint256",
          "name": "weight",
          "type": "uint256"
        },
        {
          "internalType": "address",
          "name": "delegatedTo",
          "type": "address"
        },
        {
          "internalType": "bool",
          "name": "hasVoted",
          "type": "bool"
        }
      ],
      "stateMutability": "view",
      "type": "function"
    },
    {
      "inputs": [
        {
          "internalType": "address",
          "name": "voter",
          "type": "address"
        }
      ],
      "name": "giveRightToVote",
      "outputs": [],
      "stateMutability": "nonpayable",
      "type": "function"
    },
    {
      "inputs": [],
      "name": "getCandidates",
      "outputs": [
        {
          "components": [
            {
              "internalType": "bytes32",
              "name": "name",
              "type": "bytes32"
            },
            {
              "internalType": "uint256",
              "name": "voteCount",
              "type": "uint256"
            }
          ],
          "internalType": "struct Contest.Candidate[]",
          "name": "",
          "type": "tuple[]"
        }
      ],
      "stateMutability": "view",
      "type": "function"
    },
    {
      "inputs": [
        {
          "internalType": "address",
          "name": "delegateAddress",
          "type": "address"
        }
      ],
      "name": "delegate",
      "outputs": [],
      "stateMutability": "nonpayable",
      "type": "function"
    },
    {
      "inputs": [
        {
          "internalType": "uint256",
          "name": "candidateID",
          "type": "uint256"
        }
      ],
      "name": "vote",
      "outputs": [],
      "stateMutability": "nonpayable",
      "type": "function"
    },
    {
      "inputs": [],
      "name": "winnerID",
      "outputs": [
        {
          "internalType": "uint256",
          "name": "candidateID",
          "type": "uint256"
        }
      ],
      "stateMutability": "view",
      "type": "function"
    },
    {
      "inputs": [],
      "name": "winnerName",
      "outputs": [
        {
          "internalType": "bytes32",
          "name": "candidateName",
          "type": "bytes32"
        }
      ],
      "stateMutability": "view",
      "type": "function"
    }
  ],
  "bytecode": "0x60806040523480156200001157600080fd5b5060405162001716380380620017168339818101604052810190620000379190620003a8565b806000806101000a81548173ffffffffffffffffffffffffffffffffffffffff021916908373ffffffffffffffffffffffffffffffffffffffff16021790555060018060008060009054906101000a900473ffffffffffffffffffffffffffffffffffffffff1673ffffffffffffffffffffffffffffffffffffffff1673ffffffffffffffffffffffffffffffffffffffff1681526020019081526020016000206001018190555060005b82518110156200017657600260405180604001604052808584815181106200010f576200010e6200040e565b5b60200260200101518152602001600081525090806001815401808255809150506001900390600052602060002090600202016000909190919091506000820151816000015560208201518160010155505080806200016d9062000476565b915050620000e2565b505050620004c3565b6000604051905090565b600080fd5b600080fd5b600080fd5b6000601f19601f8301169050919050565b7f4e487b7100000000000000000000000000000000000000000000000000000000600052604160045260246000fd5b620001e38262000198565b810181811067ffffffffffffffff82111715620002055762000204620001a9565b5b80604052505050565b60006200021a6200017f565b9050620002288282620001d8565b919050565b600067ffffffffffffffff8211156200024b576200024a620001a9565b5b602082029050602081019050919050565b600080fd5b6000819050919050565b620002768162000261565b81146200028257600080fd5b50565b60008151905062000296816200026b565b92915050565b6000620002b3620002ad846200022d565b6200020e565b90508083825260208201905060208402830185811115620002d957620002d86200025c565b5b835b81811015620003065780620002f1888262000285565b845260208401935050602081019050620002db565b5050509392505050565b600082601f83011262000328576200032762000193565b5b81516200033a8482602086016200029c565b91505092915050565b600073ffffffffffffffffffffffffffffffffffffffff82169050919050565b6000620003708262000343565b9050919050565b620003828162000363565b81146200038e57600080fd5b50565b600081519050620003a28162000377565b92915050565b60008060408385031215620003c257620003c162000189565b5b600083015167ffffffffffffffff811115620003e357620003e26200018e565b5b620003f18582860162000310565b9250506020620004048582860162000391565b9150509250929050565b7f4e487b7100000000000000000000000000000000000000000000000000000000600052603260045260246000fd5b7f4e487b7100000000000000000000000000000000000000000000000000000000600052601160045260246000fd5b6000819050919050565b600062000483826200046c565b91507fffffffffffffffffffffffffffffffffffffffffffffffffffffffffffffffff8203620004b857620004b76200043d565b5b600182019050919050565b61124380620004d36000396000f3fe608060405234801561001057600080fd5b50600436106100935760003560e01c80633477ee2e116100665780633477ee2e1461010e5780635c19a95c1461013f5780639e7b8d611461015b578063a3ec138d14610177578063e2ba53f0146101aa57610093565b80630121b93f1461009857806302d05d3f146100b457806306a49fce146100d2578063337ebd7a146100f0575b600080fd5b6100b260048036038101906100ad9190610a67565b6101c8565b005b6100bc61030e565b6040516100c99190610ad5565b60405180910390f35b6100da610332565b6040516100e79190610bf6565b60405180910390f35b6100f86103a5565b6040516101059190610c27565b60405180910390f35b61012860048036038101906101239190610a67565b61042d565b604051610136929190610c51565b60405180910390f35b61015960048036038101906101549190610ca6565b610461565b005b61017560048036038101906101709190610ca6565b61083e565b005b610191600480360381019061018c9190610ca6565b61099b565b6040516101a19493929190610cee565b60405180910390f35b6101b26109f8565b6040516101bf9190610d33565b60405180910390f35b6000600160003373ffffffffffffffffffffffffffffffffffffffff1673ffffffffffffffffffffffffffffffffffffffff16815260200190815260200160002090506000816001015403610252576040517f08c379a000000000000000000000000000000000000000000000000000000000815260040161024990610dd1565b60405180910390fd5b8060020160149054906101000a900460ff16156102a4576040517f08c379a000000000000000000000000000000000000000000000000000000000815260040161029b90610e3d565b60405180910390fd5b60018160020160146101000a81548160ff0219169083151502179055508181600001819055508060010154600283815481106102e3576102e2610e5d565b5b906000526020600020906002020160010160008282546103039190610ebb565b925050819055505050565b60008054906101000a900473ffffffffffffffffffffffffffffffffffffffff1681565b60606002805480602002602001604051908101604052809291908181526020016000905b8282101561039c57838290600052602060002090600202016040518060400160405290816000820154815260200160018201548152505081526020019060010190610356565b50505050905090565b6000806000905060005b6002805490508110156104285781600282815481106103d1576103d0610e5d565b5b906000526020600020906002020160010154111561041557600281815481106103fd576103fc610e5d565b5b90600052602060002090600202016001015491508092505b808061042090610f11565b9150506103af565b505090565b6002818154811061043d57600080fd5b90600052602060002090600202016000915090508060000154908060010154905082565b6000600160003373ffffffffffffffffffffffffffffffffffffffff1673ffffffffffffffffffffffffffffffffffffffff16815260200190815260200160002090508060020160149054906101000a900460ff16156104f6576040517f08c379a00000000000000000000000000000000000000000000000000000000081526004016104ed90610e3d565b60405180910390fd5b3373ffffffffffffffffffffffffffffffffffffffff168273ffffffffffffffffffffffffffffffffffffffff1603610564576040517f08c379a000000000000000000000000000000000000000000000000000000000815260040161055b90610fa5565b60405180910390fd5b5b600073ffffffffffffffffffffffffffffffffffffffff16600160008473ffffffffffffffffffffffffffffffffffffffff1673ffffffffffffffffffffffffffffffffffffffff16815260200190815260200160002060020160009054906101000a900473ffffffffffffffffffffffffffffffffffffffff1673ffffffffffffffffffffffffffffffffffffffff16146106d357600160008373ffffffffffffffffffffffffffffffffffffffff1673ffffffffffffffffffffffffffffffffffffffff16815260200190815260200160002060020160009054906101000a900473ffffffffffffffffffffffffffffffffffffffff1691503373ffffffffffffffffffffffffffffffffffffffff168273ffffffffffffffffffffffffffffffffffffffff16036106ce576040517f08c379a00000000000000000000000000000000000000000000000000000000081526004016106c590611037565b60405180910390fd5b610565565b6000600160008473ffffffffffffffffffffffffffffffffffffffff1673ffffffffffffffffffffffffffffffffffffffff168152602001908152602001600020905060018160010154101561075e576040517f08c379a0000000000000000000000000000000000000000000000000000000008152600401610755906110c9565b60405180910390fd5b60018260020160146101000a81548160ff021916908315150217905550828260020160006101000a81548173ffffffffffffffffffffffffffffffffffffffff021916908373ffffffffffffffffffffffffffffffffffffffff16021790555081600101548160010160008282546107d69190610ebb565b925050819055508060020160149054906101000a900460ff1615610839578160010154600282600001548154811061081157610810610e5d565b5b906000526020600020906002020160010160008282546108319190610ebb565b925050819055505b505050565b60008054906101000a900473ffffffffffffffffffffffffffffffffffffffff1673ffffffffffffffffffffffffffffffffffffffff163373ffffffffffffffffffffffffffffffffffffffff16146108cc576040517f08c379a00000000000000000000000000000000000000000000000000000000081526004016108c39061115b565b60405180910390fd5b6000600160008373ffffffffffffffffffffffffffffffffffffffff1673ffffffffffffffffffffffffffffffffffffffff1681526020019081526020016000206001015414610951576040517f08c379a0000000000000000000000000000000000000000000000000000000008152600401610948906111ed565b60405180910390fd5b60018060008373ffffffffffffffffffffffffffffffffffffffff1673ffffffffffffffffffffffffffffffffffffffff1681526020019081526020016000206001018190555050565b60016020528060005260406000206000915090508060000154908060010154908060020160009054906101000a900473ffffffffffffffffffffffffffffffffffffffff16908060020160149054906101000a900460ff16905084565b60006002610a046103a5565b81548110610a1557610a14610e5d565b5b906000526020600020906002020160000154905090565b600080fd5b6000819050919050565b610a4481610a31565b8114610a4f57600080fd5b50565b600081359050610a6181610a3b565b92915050565b600060208284031215610a7d57610a7c610a2c565b5b6000610a8b84828501610a52565b91505092915050565b600073ffffffffffffffffffffffffffffffffffffffff82169050919050565b6000610abf82610a94565b9050919050565b610acf81610ab4565b82525050565b6000602082019050610aea6000830184610ac6565b92915050565b600081519050919050565b600082825260208201905092915050565b6000819050602082019050919050565b6000819050919050565b610b2f81610b1c565b82525050565b610b3e81610a31565b82525050565b604082016000820151610b5a6000850182610b26565b506020820151610b6d6020850182610b35565b50505050565b6000610b7f8383610b44565b60408301905092915050565b6000602082019050919050565b6000610ba382610af0565b610bad8185610afb565b9350610bb883610b0c565b8060005b83811015610be9578151610bd08882610b73565b9750610bdb83610b8b565b925050600181019050610bbc565b5085935050505092915050565b60006020820190508181036000830152610c108184610b98565b905092915050565b610c2181610a31565b82525050565b6000602082019050610c3c6000830184610c18565b92915050565b610c4b81610b1c565b82525050565b6000604082019050610c666000830185610c42565b610c736020830184610c18565b9392505050565b610c8381610ab4565b8114610c8e57600080fd5b50565b600081359050610ca081610c7a565b92915050565b600060208284031215610cbc57610cbb610a2c565b5b6000610cca84828501610c91565b91505092915050565b60008115159050919050565b610ce881610cd3565b82525050565b6000608082019050610d036000830187610c18565b610d106020830186610c18565b610d1d6040830185610ac6565b610d2a6060830184610cdf565b95945050505050565b6000602082019050610d486000830184610c42565b92915050565b600082825260208201905092915050565b7f54686973206164647265737320686173206e6f20726967687420746f20766f7460008201527f6520696e207468697320636f6e74657374000000000000000000000000000000602082015250565b6000610dbb603183610d4e565b9150610dc682610d5f565b604082019050919050565b60006020820190508181036000830152610dea81610dae565b9050919050565b7f5468697320616464726573732068617320616c726561647920766f7465640000600082015250565b6000610e27601e83610d4e565b9150610e3282610df1565b602082019050919050565b60006020820190508181036000830152610e5681610e1a565b9050919050565b7f4e487b7100000000000000000000000000000000000000000000000000000000600052603260045260246000fd5b7f4e487b7100000000000000000000000000000000000000000000000000000000600052601160045260246000fd5b6000610ec682610a31565b9150610ed183610a31565b9250827fffffffffffffffffffffffffffffffffffffffffffffffffffffffffffffffff03821115610f0657610f05610e8c565b5b828201905092915050565b6000610f1c82610a31565b91507fffffffffffffffffffffffffffffffffffffffffffffffffffffffffffffffff8203610f4e57610f4d610e8c565b5b600182019050919050565b7f53656c662d64656c65676174696f6e206973206e6f7420616c6c6f7765640000600082015250565b6000610f8f601e83610d4e565b9150610f9a82610f59565b602082019050919050565b60006020820190508181036000830152610fbe81610f82565b9050919050565b7f44656c65676174696e6720746f207468697320706572736f6e2077696c6c206360008201527f726561746520612064656c65676174696f6e206c6f6f70000000000000000000602082015250565b6000611021603783610d4e565b915061102c82610fc5565b604082019050919050565b6000602082019050818103600083015261105081611014565b9050919050565b7f5468652063686f73656e2064656c656761746520686173206e6f74206265656e60008201527f206772616e7465642074686520726967687420746f20766f7465000000000000602082015250565b60006110b3603a83610d4e565b91506110be82611057565b604082019050919050565b600060208201905081810360008301526110e2816110a6565b9050919050565b7f54686973206f7065726174696f6e206973206f6e6c792061636365737369626c60008201527f6520746f207468697320636f6e7465737427732063726561746f720000000000602082015250565b6000611145603b83610d4e565b9150611150826110e9565b604082019050919050565b6000602082019050818103600083015261117481611138565b9050919050565b7f5468697320616464726573732068617320616c7265616479206265656e20677260008201527f616e7465642074686520726967687420746f20766f7465000000000000000000602082015250565b60006111d7603783610d4e565b91506111e28261117b565b604082019050919050565b60006020820190508181036000830152611206816111ca565b905091905056fea2646970667358221220da4570107e361d738aeac09a5b8c68567ca4e27b07e32663096e271f0198c5bf64736f6c634300080d0033",
  "immutableReferences": {},
  "source": "// SPDX-License-Identifier: MIT\r\npragma solidity >=0.8.0 <0.9.0;\r\n\r\ncontract Contest {\r\n    struct Voter {\r\n        uint vote;\r\n        uint weight;\r\n        address delegatedTo;\r\n        bool hasVoted;\r\n    }\r\n\r\n    struct Candidate {\r\n        bytes32 name;\r\n        uint voteCount;\r\n    }\r\n\r\n    address public creator;\r\n    mapping(address => Voter) public voters;\r\n    Candidate[] public candidates;\r\n\r\n    constructor(bytes32[] memory candidateNames, address creatorAddress) {\r\n        creator = creatorAddress;\r\n        voters[creator].weight = 1;\r\n\r\n        for (uint i = 0; i < candidateNames.length; i++) {\r\n            candidates.push(Candidate({\r\n                name: candidateNames[i],\r\n                voteCount: 0\r\n            }));\r\n        }\r\n    }\r\n\r\n    modifier creatorOnly {\r\n        require(\r\n            msg.sender == creator,\r\n            \"This operation is only accessible to this contest's creator\"\r\n        );\r\n        _;\r\n    }\r\n\r\n    function giveRightToVote(address voter) external creatorOnly {\r\n        require(\r\n            voters[voter].weight == 0,\r\n            \"This address has already been granted the right to vote\"\r\n        );\r\n        voters[voter].weight = 1;\r\n    }\r\n\r\n    function getCandidates() public view returns (Candidate[] memory) {\r\n        return candidates;\r\n    }\r\n\r\n    function delegate(address delegateAddress) external {\r\n        Voter storage voter = voters[msg.sender];\r\n        \r\n        require(!voter.hasVoted, \"This address has already voted\");\r\n        require(delegateAddress != msg.sender, \"Self-delegation is not allowed\");\r\n\r\n        while (voters[delegateAddress].delegatedTo != address(0)) {\r\n            delegateAddress = voters[delegateAddress].delegatedTo;\r\n\r\n            require(\r\n                delegateAddress != msg.sender,\r\n                \"Delegating to this person will create a delegation loop\"\r\n            );\r\n        }\r\n\r\n        Voter storage chosenDelegate = voters[delegateAddress];\r\n\r\n        require(\r\n            chosenDelegate.weight >= 1,\r\n            \"The chosen delegate has not been granted the right to vote\"\r\n        );\r\n\r\n        voter.hasVoted = true;\r\n        voter.delegatedTo = delegateAddress;\r\n        chosenDelegate.weight += voter.weight;\r\n        if (chosenDelegate.hasVoted) {\r\n            candidates[chosenDelegate.vote].voteCount += voter.weight;\r\n        }\r\n    }\r\n\r\n    function vote(uint candidateID) external {\r\n        Voter storage voter = voters[msg.sender];\r\n\r\n        require(voter.weight != 0, \"This address has no right to vote in this contest\");\r\n        require(!voter.hasVoted, \"This address has already voted\");\r\n        \r\n        voter.hasVoted = true;\r\n        voter.vote = candidateID;\r\n\r\n        candidates[candidateID].voteCount += voter.weight;\r\n    }\r\n\r\n    function winnerID() public view returns (uint candidateID)\r\n    {\r\n        uint winningVoteCount = 0;\r\n        for (uint i = 0; i < candidates.length; i++) {\r\n            if (candidates[i].voteCount > winningVoteCount) {\r\n                winningVoteCount = candidates[i].voteCount;\r\n                candidateID = i;\r\n            }\r\n        }\r\n    }\r\n\r\n    function winnerName() external view returns (bytes32 candidateName)\r\n    {\r\n        candidateName = candidates[winnerID()].name;\r\n    }\r\n}\r\n\r\ncontract Decentraballot {\r\n    struct ContestIdentity {\r\n        bytes32 identifier;\r\n        string description;\r\n        address contractAddress;\r\n    }\r\n\r\n    mapping(bytes32 => ContestIdentity) public contests;\r\n\r\n    function createContest(bytes32 identifier, string calldata description, bytes32[] calldata candidates) external {\r\n        require (contests[identifier].contractAddress == address(0), \"Contest with given identifier already exists\");\r\n\r\n        contests[identifier] = ContestIdentity(\r\n            {\r\n                identifier: identifier,\r\n                contractAddress: address(new Contest(candidates, msg.sender)),\r\n                description: description\r\n            }\r\n        );\r\n    }\r\n\r\n    function getContestAddress(bytes32 identifier) external view returns (address) {\r\n        require (contests[identifier].contractAddress != address(0), \"Contest with given identifier does not exist\");\r\n        \r\n        return contests[identifier].contractAddress;\r\n    }\r\n\r\n    function getContestDescription(bytes32 identifier) external view returns (string memory) {\r\n        require (contests[identifier].contractAddress != address(0), \"Contest with given identifier does not exist\");\r\n\r\n        return contests[identifier].description;\r\n    }\r\n}",
  "sourcePath": "C:\\Users\\zaida\\OneDrive\\Desktop\\Blockchain Dev\\Decentraballot\\blockchain\\contracts\\Decentraballot.sol",
  "compiler": {
    "name": "solc",
    "version": "0.8.13+commit.abaa5c0e.Emscripten.clang"
  },
  "schemaVersion": "3.4.7",
  "updatedAt": "2022-05-18T00:55:14.752Z",
  "devdoc": {
    "kind": "dev",
    "methods": {},
    "version": 1
  },
  "userdoc": {
    "kind": "user",
    "methods": {},
    "version": 1
  }
}